:1018000019C033C032C031C030C02FC02EC02DC06F
:101810002CC02BC02AC029C028C027C026C025C084
:1018200024C023C022C021C020C01FC01EC01DC0B4
:101830001CC01BC011241FBECFEFD4E0DEBFCDBF44
:1018400011E0A0E0B1E0EAEEFEE102C005900D92E9
:10185000A230B107D9F712E0A2E0B1E001C01D92B9
:10186000AD30B107E1F7D6D03EC3CACF982F9595DA
:10187000959595959595905D8F708A307CF0282F81
:10188000295A8091C00085FFFCCF9093C6008091BB
:10189000C00085FFFCCF2093C6000895282F205D4F
:1018A000F0CF982F8091C00085FFFCCF9093C600A9
:1018B0000895EF92FF920F931F93EE24FF24870168
:1018C0008091C00087FD17C00894E11CF11C011D28
:1018D000111D81E4E81682E4F8068FE0080780E035
:1018E000180770F3E0910401F091050109958091CA
:1018F000C00087FFE9CF8091C6001F910F91FF9034
:10190000EF900895D6DF982F8091C00085FFFCCF1F
:101910009093C60091362CF490330CF09053892F9D
:1019200008959755892F08951F93ECDF182FEADF4C
:101930001295107F810F1F9108951F93182F8823F0
:1019400019F0B7DF1150E9F71F9108951F93182F71
:10195000B0DF803249F0809103018F5F80930301F3
:101960008530C1F01F9108958091C00085FFFCCFA4
:1019700084E18093C6008091C00085FFFCCF109366
:10198000C6008091C00085FFFCCF80E18093C60037
:101990001F910895E0910401F091050109951F91AF
:1019A000089587DF803241F0809103018F5F80933B
:1019B0000301853081F008958091C00085FFFCCF40
:1019C00084E18093C6008091C00085FFFCCF80E158
:1019D0008093C6000895E0910401F09105010995F6
:1019E000089540E951E08823A1F02D9A28EE33E0D4
:1019F000FA013197F1F721503040D1F72D9828EEB8
:101A000033E0FA013197F1F721503040D1F781509E
:101A100061F708953F924F925F926F927F928F92FB
:101A20009F92AF92BF92CF92DF92EF92FF920F936D
:101A30001F93CF93DF93000083E38093C400109241
:101A4000C50088E18093C10086E08093C200509871
:101A5000589A259A81E0C5DF24E1F22E9EE1E92E15
:101A600083E9D82E0AE0C02E10E1B12EAA24A39457
:101A7000B1E49B2EA6E58A2EF2E57F2EE0E26E2EE3
:101A800079E4572E63E5462E50E5352E12DF80337C
:101A9000A9F18133A9F1803409F46CC0813409F4CF
:101AA0006FC0823409F47CC0853409F47DC0803570
:101AB00029F1823519F1813509F1853509F478C0AC
:101AC000863509F47DC0843609F483C0843709F46F
:101AD000E9C0853709F452C1863709F45EC08091A8
:101AE00003018F5F80930301853081F6E09104014B
:101AF000F09105010995DDDE803359F652DFC6CF3E
:101B0000D8DE803261F78091C00085FFFCCFF09273
:101B1000C6008091C00085FFFCCF9092C6008091E6
:101B2000C00085FFFCCF8092C6008091C00085FF79
:101B3000FCCF7092C6008091C00085FFFCCF609200
:101B4000C6008091C00085FFFCCF5092C6008091F6
:101B5000C00085FFFCCF4092C6008091C00085FF89
:101B6000FCCF3092C6008091C00085FFFCCFB092C0
:101B7000C6008CCF9EDE863808F29BDE12DF86CF51
:101B800098DE803809F48BC0813809F4F4C08238BB
:101B900009F417C1883909F47FC080E0D7DE76CF19
:101BA00084E1CBDEFEDE72CF85E0C7DEFADE6ECFEB
:101BB00080DE809306017DDE80930701F2DE66CF32
:101BC00078DE803309F400C183E0B7DE80E0BEDE5A
:101BD0005DCF6FDE809309026CDE809308028091F6
:101BE0000C028E7F80930C0264DE853409F4F9C008
:101BF0008091080290910902892B81F000E010E0A9
:101C000058DEF801E85FFE4F80830F5F1F4F809121
:101C10000802909109020817190790F34ADE8032F2
:101C200009F05DCF80910C0280FFE7C06091060152
:101C300070910701660F771F70930701609306018B
:101C4000A0910802B09109021097C9F0E8E0F1E014
:101C50009B01AD014E0F5F1FF999FECF32BD21BD33
:101C6000819180BDFA9AF99A2F5F3F4FE417F507EB
:101C700099F76A0F7B1F70930701609306018091AB
:101C8000C00085FFFCCFF092C6008091C00085FFA8
:101C9000FCCFB092C600FACE83E058DEF7CE82E0E9
:101CA00055DEF4CE06DE8093090203DE809308023F
:101CB0008091060190910701880F991F9093070169
:101CC00080930601F6DD853409F491C080910C0201
:101CD0008E7F80930C02EDDD803209F0D7CE8091AB
:101CE000C00085FFFCCFF092C600A0910802B09121
:101CF00009021097B9F180910C02182F1170082F6A
:101D00000270E0910601F0910701AF014F5F5F4F54
:101D1000BA0120E030E01123B1F4002339F49491AA
:101D20008091C00085FFFCCF9093C6002F5F3F4F8E
:101D3000CB010196FA012A173B0780F4BC014F5FE3
:101D40005F4F112351F3F999FECFF2BDE1BDF89A2F
:101D500090B58091C00085FFFCCFE6CF709307015E
:101D6000609306018091C00085FD01CF8091C00085
:101D700085FFF8CFFCCE81E0E9DD88CE9ADD8032A8
:101D800009F0ADCE8091C00085FFFCCFF092C60077
:101D90008091C00085FFFCCFE092C6008091C0001A
:101DA00085FFFCCFD092C6008091C00085FFFCCF9C
:101DB000C092C6008091C00085FFFCCFB092C600E3
:101DC00065CE80E1C3DD62CE74DD73DD182F71DD79
:101DD000112309F482C0113009F482C08AE0B6DD13
:101DE00055CE80910C02816080930C0201CF8091CE
:101DF0000C02816080930C026ECF809107018823D2
:101E0000880F880B8A2180930B02809106019091A4
:101E10000701880F991F9093070180930601809115
:101E2000080280FF09C08091080290910902019682
:101E30009093090280930802F894F999FECF112734
:101E4000E0910601F0910701C8E0D1E0809108021D
:101E500090910902103091F4009157000170013007
:101E6000D9F303E000935700E89500915700017003
:101E70000130D9F301E100935700E89509901990DA
:101E80000091570001700130D9F301E00093570031
:101E9000E8951395103298F01127009157000170C2
:101EA0000130D9F305E000935700E8950091570001
:101EB00001700130D9F301E100935700E8953296A3
:101EC000029709F0C7CF103011F00296E5CF112428
:101ED0008091C00085FFD3CED6CE8EE137DDD6CD42
:0A1EE00083E934DDD3CDF894FFCF81
:021EEA00800076
:0400000300001800E1
:00000001FF
